:020000040800F2
:10000000180400209D010008D1080008CD08000850
:10001000CF080008A9020008A1090008000000009C
:10002000000000000000000000000000D5080008EB
:10003000AB02000800000000D3080008D708000841
:10004000B7010008B7010008B7010008B7010008B0
:10005000B7010008B7010008B7010008B7010008A0
:10006000B7010008B7010008B7010008B701000890
:10007000B7010008B7010008B7010008B701000880
:10008000B7010008B7010008B7010008B701000870
:10009000B7010008B7010008B7010008B701000860
:1000A000B7010008B7010008B7010008B701000850
:1000B000B7010008B7010008B7010008B701000840
:1000C000B7010008B7010008B7010008B701000830
:1000D000B7010008B7010008B7010008B701000820
:1000E000B7010008B7010008B7010008B701000810
:1000F000B7010008B7010008B7010008B701000800
:10010000B7010008B7010008B7010008B7010008EF
:10011000B7010008B7010008B7010008B7010008DF
:10012000B7010008B7010008B7010008B7010008CF
:10013000B7010008B7010008B7010008B7010008BF
:10014000B7010008B7010008B7010008B7010008AF
:10015000B7010008B7010008B7010008B70100089F
:10016000B7010008B7010008B7010008B70100088F
:10017000B7010008B7010008B7010008000000003F
:10018000B7010008B7010008DFF80CD000F07AF8DA
:10019000004800473D0A0008180400200648804730
:1001A00006480047FEE7FEE7FEE7FEE7FEE7FEE75C
:1001B000FEE7FEE7FEE7FEE74D09000889010008BB
:1001C0002DE9F05F0546002092469B46884606468C
:1001D000814640241BE0284641464746224600F01F
:1001E00041F853465A46C01A914110D31146184659
:1001F000224600F028F82D1A67EB01084F462246E8
:100200000120002100F01FF817EB00094E41201ECD
:10021000A4F10104DFDC484631462A464346BDE8E6
:10022000F09FD2B201E000F8012B491EFBD27047CB
:100230000022F6E710B513460A4604461946FFF7B2
:10024000F0FF204610BD202A04DB203A00FA02F11C
:10025000002070479140C2F1200320FA03F31943B4
:1002600090407047202A04DB203A21FA02F0002156
:10027000704721FA02F3D040C2F1200291400843B6
:1002800019467047064C074D06E0E06840F0010350
:1002900094E8070098471034AC42F6D3FFF778FF94
:1002A000900A0008B00A0008FEE7704770B50446DF
:1002B00000F00EF80546601C02D0044800780444A3
:1002C00000F006F8401BA042FAD370BD00000020E9
:1002D00001488068704700000000002002488168E3
:1002E0000278114481607047000000200B4810B56F
:1002F000016841F400710160016841F480610160AE
:10030000016841F480710160032000F061F8002071
:1003100000F006F800F024F8002010BD003C024078
:1003200070B50D4D04464FF47A712878B1FBF0F0AA
:100330000A490968B1FBF0F000F0B4FA48B9102C92
:1003400007D200222146501E00F022F800206C60E7
:1003500070BD012070BD0000000000200C000020D6
:100360000A4808B5016841F480410160006800F462
:10037000804000900548001F016841F080510160F5
:10038000006800F08050009008BD00004438024032
:10039000F0B40E4B1B680C46C3F30223C3F10705F0
:1003A000042D00D90425191D072901D2002300E0DE
:1003B000DB1E012606FA05F1491E214099409E40A8
:1003C000761E16403143F0BC00F0F4BA0CED00E0AC
:1003D000064900F0070208684FF6FF03184040EA9C
:1003E0000220034A10430860704700000CED00E053
:1003F0000000FA052DE9F0470E46050065D0DFF84C
:100400001481D8F80000F7B200F00F00B04207D214
:1004100088F80070D8F8000000F00F00B04254D106
:1004200028683D4C810712D5400703D5206840F469
:10043000E05020602878000703D5206840F4604031
:1004400020602068A96820F0F00008432060287828
:10045000C0072DD0304968680839012812D0022819
:1004600013D0032811D00968890700292DDA2168E3
:1004700021F0030101432160FFF72AFF814641F289
:10048000883A0EE009688903EFE709688901ECE71B
:10049000FFF71EFFA0EB0901514502D90320BDE87B
:1004A000F0872068696800F00C00B0EB810FEFD195
:1004B000D8F80010404601F00F01B14207D907708B
:1004C000006800F00F00B04201D00120E7E7287873
:1004D000400705D52068E96820F4E0500843206013
:1004E0002878000706D52068296920F4604040EA92
:1004F000C100206000F016F82168084AC1F303111A
:10050000515CC840064908600020FFF709FF002041
:10051000C5E70000003C024008380240800A00089D
:100520000C000020154810B5006810F00C021448AB
:1005300013D01449042A0FD0082A0ED10F4C241FBF
:100540002268236802F03F025B0207D52068C0F3EF
:100550008810A0FB010106E0084610BD2168C1F328
:100560008811A1FB00010023FFF72AFE2168C1F3D7
:100570000141491C4900B0FBF1F010BD08380240B0
:100580000024F40040787D012DE9F84F050076D075
:100590002878DFF8F8B2BE4CC00749D0DBF800106D
:1005A0005846C1F38101012908D00068C0F38100D9
:1005B00002280AD1201D0068400206D52068800369
:1005C00036D568680028E2D032E06868B0F5803F30
:1005D00010D0B0F5A02F206810D020F4803020601B
:1005E000206820F4802020606868A0B1FFF770FECA
:1005F00006460CE0206840F48030F4E740F48020A8
:100600002060F7E7FFF764FE801B642873D820683A
:100610008003F7D50CE0FFF75BFE064605E000BF60
:10062000FFF756FE801B6428F0D820688003F7D4BB
:100630002878DFF8608280074FF000093ED5DBF8AC
:100640000010584611F00C0F09D00068C0F381006B
:1006500002280BD18D48001F0068400206D4206894
:10066000800715D5E868012809D111E0E868B8B11C
:100670000120C8F80000FFF72BFE064605E002E166
:10068000FFF726FE801B0228C0D820688007F7D518
:100690002068296920F0F80040EAC10020600DE0E0
:1006A000C8F80090FFF714FE064604E0FFF710FEBE
:1006B000801B02281FD820688007F7D428780007FD
:1006C00022D5724E744869696C3671B1012101609E
:1006D000FFF7FEFD074604E0FFF7FAFDC01B022806
:1006E00009D830688007F7D50EE0C0F80090FFF712
:1006F000EFFD074605E083E0FFF7EAFDC01B022897
:100700007ED830688007F7D42878400768D5DFF8AE
:100710007CA100270AF1380ADAF80000C0000BD4E7
:10072000DAF8001041F08051CAF80010DAF8000041
:10073000012700F080500090584E3068C00510D45A
:10074000306840F480703060FFF7C2FD009005E033
:10075000FFF7BEFD0099401A022851D83068C00545
:10076000F6D54A4EA868683601280FD005283068AB
:1007700010D020F001003060306820F004003060BC
:10078000A868B8B1FFF7A4FD00900FE0306840F012
:100790000100F4E740F004003060F7E7FFF798FD50
:1007A0000099411A41F28830814264D8306880074C
:1007B000F4D50EE0FFF78CFD009007E0FFF788FD11
:1007C0000099411A41F28830814254D8306880073C
:1007D000F4D42FB1DAF8001021F08051CAF80010DB
:1007E000A869C0B3DBF80010C1F3810102294AD027
:1007F0000228484607D0C8F86000FFF769FD00E00E
:1008000039E005463AE04746C8F86000FFF760FD6A
:10081000064604E0FFF75CFD801B02282BD8206809
:100820008001F7D4D5E907010843A96A1C4A4908A1
:1008300002EB01416A6A41EA8211084395F82C10E3
:1008400040EA01611148001F016001203866FFF78E
:100850003FFD054605E014E0FFF73AFD401B022886
:1008600009D820688001F7D50BE000BFFFF730FD05
:10087000401B022802D90320BDE8F88F20688001C0
:10088000F4D40020F8E70120F6E700000838024021
:100890000038024000004742800E4742007000408E
:1008A0000000FFFF10B5401EB0F1807F01D3012092
:1008B00010BD4FF0E02460610F21601700F07AF85E
:1008C0000020A06107202061002010BDFEE7FEE7A8
:1008D000704770477047FFF701BD000010B592B038
:1008E00030216846FFF7A4FC14210CA8FFF7A0FCF8
:1008F00014480024016841F080510160006800F054
:10090000805011901048016841F4804101600068F6
:10091000069400F480401190022000900120039082
:10092000102004906846FFF72FFE0F20CDE90C043D
:100930000E940F9400210CA81094FFF75BFD12B0E9
:1009400010BD0000403802400070004010480168AF
:1009500041F4700101600F48016841F0010101603C
:100960000C4A00210832116002680B4B1A400260E9
:10097000031D0A4A1A60026822F4802202600548B8
:100980000C30016002495806803908607047000049
:1009900088ED00E000380240FFFFF6FE1030002432
:1009A000FEE70000014A024900F023B8150A0008DA
:1009B000100000200907090E002804DB00F1E020E8
:1009C00080F80014704700F00F0000F1E02080F87C
:1009D000141D704702E008C8121F08C1002AFAD18E
:1009E00070477047002001E001C1121F002AFBD1AF
:1009F00070472DE9F04116460F460446002503E0F6
:100A00003946B047641C6D1C20780028F8D1284670
:100A1000BDE8F08108490968C90706D00649803950
:100A20000968CA074FF0604101D1704700BF0A68EA
:100A3000002AFBD008707047800E00E008B5FFF771
:100A400055FCFFF74BFF0948016841F001010160C7
:100A500000684FF47A7400F00100009004A0FFF7E2
:100A6000A1FF2046FFF722FCF8E7000030380240E3
:100A700048656C6C6F2C20776F726C640A00000004
:100A8000000000000000000001020304060708093E
:100A9000B00A00080000002014000000D40900087B
:100AA000C40A00081400002004040000E40900083F
:100AB0000100000010000000000000000024F4000D
:040AC0000000000032
:040000050800018965
:00000001FF
